:020000040000fa
:080000000002040000000000f2
:020000040000fa
:04000800a80200004a
:020000040000fa
:04000c00a802000046
:020000040000fa
:04001000a802000042
:020000040000fa
:04001400a80200003e
:020000040000fa
:04001800a80200003a
:020000040000fa
:04001c00a802000036
:020000040000fa
:04002000a802000032
:020000040000fa
:04002400a80200002e
:020000040000fa
:04002800a80200002a
:020000040000fa
:04002c00a802000026
:020000040000fa
:04003000a802000022
:020000040000fa
:04003400b807000009
:020000040000fa
:04003800a80200001a
:020000040000fa
:04003c00a802000016
:020000040000fa
:04004000a802000012
:020000040000fa
:04004400a80200000e
:020000040000fa
:04004800a80200000a
:020000040000fa
:04004c00a802000006
:020000040000fa
:04005000a802000002
:020000040000fa
:04005400d0040000d4
:020000040000fa
:04005800f2040000ae
:020000040000fa
:04005c00a8020000f6
:020000040000fa
:04006000a8020000f2
:020000040000fa
:04006400a8020000ee
:020000040000fa
:04006800a8020000ea
:020000040000fa
:04006c00a8020000e6
:020000040000fa
:040070004e09000035
:020000040000fa
:04007400dc080000a4
:020000040000fa
:04007800a8020000da
:020000040000fa
:04007c00a8020000d6
:020000040000fa
:04008000a8020000d2
:020000040000fa
:04008400a8020000ce
:020000040000fa
:04008800a8020000ca
:020000040000fa
:04008c00a8020000c6
:020000040000fa
:04009000a8020000c2
:020000040000fa
:04009400a8020000be
:020000040000fa
:04009800a8020000ba
:020000040000fa
:04009c00a8020000b6
:020000040000fa
:0400a000a8020000b2
:020000040000fa
:0400a400a8020000ae
:020000040000fa
:0400a800a8020000aa
:020000040000fa
:0400ac00a8020000a6
:020000040000fa
:0400b000a8020000a2
:020000040000fa
:0400b400a80200009e
:020000040000fa
:0400b800a80200009a
:020000040000fa
:0400bc00a802000096
:020000040000fa
:0400c000a802000092
:020000040000fa
:0400c400a80200008e
:020000040000fa
:0400c800a80200008a
:020000040000fa
:0400cc00a802000086
:020000040000fa
:0400d000a802000082
:020000040000fa
:0400d400a80200007e
:020000040000fa
:0400d800a80200007a
:020000040000fa
:0400dc00a802000076
:020000040000fa
:0400e000a802000072
:020000040000fa
:0400e400a80200006e
:020000040000fa
:0400e800a80200006a
:020000040000fa
:0400ec00aa03000063
:020000040000fa
:0400f0000404000004
:020000040000fa
:0400f400a80200005e
:020000040000fa
:0400f800a80200005a
:020000040000fa
:0400fc00a802000056
:020000040000fa
:04010000a802000051
:020000040000fa
:04010400a80200004d
:020000040000fa
:04010800a802000049
:020000040000fa
:04010c00a802000045
:020000040000fa
:04011000a802000041
:020000040000fa
:04011400a80200003d
:020000040000fa
:04011800a802000039
:020000040000fa
:04011c00a802000035
:020000040000fa
:04012000a802000031
:020000040000fa
:04012400a80200002d
:020000040000fa
:04012800a802000029
:020000040000fa
:04012c001a050000b0
:020000040000fa
:04013000a802000021
:020000040000fa
:04013400a80200001d
:020000040000fa
:04013800a802000019
:020000040000fa
:04013c00a802000015
:020000040000fa
:04014000a802000011
:020000040000fa
:04014400a80200000d
:020000040000fa
:04014800a802000009
:020000040000fa
:04014c00a802000005
:020000040000fa
:04015000a802000001
:020000040000fa
:04015400a8020000fd
:020000040000fa
:04015800a8020000f9
:020000040000fa
:04015c00a8020000f5
:020000040000fa
:04016000a8020000f1
:020000040000fa
:04016400a8020000ed
:020000040000fa
:04016800a8020000e9
:020000040000fa
:04016c00a8020000e5
:020000040000fa
:04017000a8020000e1
:020000040000fa
:04017400a8020000dd
:020000040000fa
:04017800a8020000d9
:020000040000fa
:04017c00a8020000d5
:020000040000fa
:04018000a8020000d1
:020000040000fa
:04018400a8020000cd
:020000040000fa
:04018800a8020000c9
:020000040000fa
:04018c00a8020000c5
:020000040000fa
:04019000a8020000c1
:020000040000fa
:04019400a8020000bd
:020000040000fa
:04019800a8020000b9
:020000040000fa
:04019c00a8020000b5
:020000040000fa
:0401a000a8020000b1
:020000040000fa
:0401a400a8020000ad
:020000040000fa
:0401a800a8020000a9
:020000040000fa
:0401ac00a8020000a5
:020000040000fa
:04020800a802000048
:020000040000fa
:04020c00a802000044
:020000040000fa
:04021000a802000040
:020000040000fa
:04021400a80200003c
:020000040000fa
:04021800a802000038
:020000040000fa
:04021c00a802000034
:020000040000fa
:04022000a802000030
:020000040000fa
:04022400a80200002c
:020000040000fa
:04022800a802000028
:020000040000fa
:04022c00a802000024
:020000040000fa
:04023000a802000020
:020000040000fa
:04023400a80200001c
:020000040000fa
:04023800a802000018
:020000040000fa
:04023c00a802000014
:020000040000fa
:04024000a802000010
:020000040000fa
:04024400a80200000c
:020000040000fa
:04024800a802000008
:020000040000fa
:04024c00a802000004
:020000040000fa
:04025000a802000000
:020000040000fa
:04025400a8020000fc
:020000040000fa
:04025800a8020000f8
:020000040000fa
:04025c00a8020000f4
:020000040000fa
:04026000a8020000f0
:020000040000fa
:04026400a8020000ec
:020000040000fa
:04026800a8020000e8
:020000040000fa
:04026c00a8020000e4
:020000040000fa
:04027000a8020000e0
:020000040000fa
:04027400a8020000dc
:020000040000fa
:04027800a8020000d8
:020000040000fa
:04027c00a8020000d4
:020000040000fa
:04028000a8020000d0
:020000040000fa
:04028400a8020000cc
:020000040000fa
:04028800a8020000c8
:020000040000fa
:04028c00a8020000c4
:020000040000fa
:04029000a8020000c0
:020000040000fa
:04029400a8020000bc
:020000040000fa
:04029800a8020000b8
:020000040000fa
:04029c00a8020000b4
:020000040000fa
:0402a000a8020000b0
:020000040000fa
:0402a400a8020000ac
:020000040000fa
:0402a800a8020000a8
:020000040000fa
:0402ac00a8020000a4
:020000040000fa
:0402b000a8020000a0
:020000040000fa
:0402b400a80200009c
:020000040000fa
:0402b800a802000098
:020000040000fa
:0402bc00a802000094
:020000040000fa
:0402c000a802000090
:020000040000fa
:0402c400a80200008c
:020000040000fa
:0402c800a802000088
:020000040000fa
:0402cc00a802000084
:020000040000fa
:0402d000a802000080
:020000040000fa
:0402d400a80200007c
:020000040000fa
:0402d800a802000078
:020000040000fa
:0402dc00a802000074
:020000040000fa
:0402e000a802000070
:020000040000fa
:0402e400a80200006c
:020000040000fa
:0402e800a802000068
:020000040000fa
:0402ec00a802000064
:020000040000fa
:0402f000a802000060
:020000040000fa
:0402f400a80200005c
:020000040000fa
:0402f800a802000058
:020000040000fa
:0402fc00a802000054
:020000040000fa
:04030000a80200004f
:020000040000fa
:04030400a80200004b
:020000040000fa
:04030800a802000047
:020000040000fa
:04030c00a802000043
:020000040000fa
:04031000a80200003f
:020000040000fa
:04031400a80200003b
:020000040000fa
:04031800a802000037
:020000040000fa
:04031c00a802000033
:020000040000fa
:04032000a80200002f
:020000040000fa
:04032400a80200002b
:020000040000fa
:04032800a802000027
:020000040000fa
:04032c00a802000023
:020000040000fa
:04033000a80200001f
:020000040000fa
:04033400a80200001b
:020000040000fa
:04033800a802000017
:020000040000fa
:04033c00a802000013
:020000040000fa
:04034000a80200000f
:020000040000fa
:04034400a80200000b
:020000040000fa
:04034800a802000007
:020000040000fa
:04034c00a802000003
:020000040000fa
:04035000a8020000ff
:020000040000fa
:04035400a8020000fb
:020000040000fa
:04035800a8020000f7
:020000040000fa
:04035c00a8020000f3
:020000040000fa
:04036000a8020000ef
:020000040000fa
:04036400a8020000eb
:020000040000fa
:04036800a8020000e7
:020000040000fa
:04036c00a8020000e3
:020000040000fa
:04037000a8020000df
:020000040000fa
:04037400a8020000db
:020000040000fa
:04037800a8020000d7
:020000040000fa
:04037c00a8020000d3
:020000040000fa
:04038000a8020000cf
:020000040000fa
:04038400a8020000cb
:020000040000fa
:04038800a8020000c7
:020000040000fa
:04038c00a8020000c3
:020000040000fa
:04039000a8020000bf
:020000040000fa
:04039400a8020000bb
:020000040000fa
:04039800a8020000b7
:020000040000fa
:04039c00a8020000b3
:020000040000fa
:0403a000a8020000af
:020000040000fa
:0403a400a8020000ab
:020000040000fa
:0403a800a8020000a7
:020000040000fa
:0403ac00a8020000a3
:020000040000fa
:100400008fba20000eff20000e01880000000000bf
:10041000000020000000e000020032000001200087
:10042000200288000c000700c0912000010020007d
:1004300011000700000020000000e0000200320070
:1004400000000200000000001a0602000000000088
:100450000040da000000fe004440a9000000200037
:100460000000e0000300320000002000a00188002e
:100470004440a80000000600910188008000780038
:100480000000eb0015003700e280400032a0b4000d
:100490009101ba00e280400032a0b4009102ba009b
:1004a000e280400032a0b4000002eb00472bde00e7
:1004b000f507b200602ce10004003a000059eb009f
:1004c0008301e900fdff3e00040037006128e100e0
:1004d000010032000082eb000b00070011c3ba00dc
:1004e0001101ba000604e00003003a000200e00037
:1004f000e5ff3a0000000600f607b200960188000a
:1005000082007800f5ff37003159ba008301e90015
:100510000c0032002159ba008301e90008003200c2
:100520000400e00003003a00e280400032a0b40082
:10053000f5ff370011d9ba008301e900faff3a004c
:100540008100e800e180400032a0b4000000060015
:080550000040da000000fe008b
:020000040000fa
:10055800c8c2a900c8a2a800c0e2a800c982a80011
:10056800c0af2000f0598800e059880020b420006e
:10057800205c8800105c8800862bef00402bef0081
:100588008a20a9008a40a9009a20a8009a40a800b9
:1005980000000600e14f500007003a00901080006c
:1005a8000000a0000010a1000020a1000030a10060
:1005b8009010880006003700901080000000a1000d
:1005c8000010a0000020a1000030a10090108800b9
:1005d80000000600ff3ffc00c0af2000f059880073
:1005e800e059880020b42000205c8800105c880056
:1005f800862bef00402bef000000fc0000000600f7
:10060800ff3ffc00860be2000c003200205c8000fb
:10061800b080fb0081108800205c880011b82000a1
:10062800810f50000200360020b42000205c8800b2
:10063800862bed000000fc00010037000000fc00e4
:1006480000000600ff3ffc00400be20003003a00f8
:100658000000fc000040eb00020037000000fc0036
:1006680010c0b30000000600ff3ffc00400be20092
:1006780003003a000000fc000040eb000a003700cd
:10068800402bed000000fc00f1598000314078005b
:10069800f1598800b2b32000828f50000200360062
:1006a800c1af2000f159880000000600ff3ffc00a0
:1006b800860be20003003a000000fc000040eb005b
:1006c800020037000000fc0010c0b3000000060064
:1006d800115c800080587800115c880010b82000f8
:1006e800808f50000200360020b42000105c880083
:1006f800ff3ffc00f0032000860be30001003e00f2
:10070800862bec000000fc0000000600ff3ffc0008
:10071800305c80000000fc000104200000805000d4
:1007280000000600ff3ffc00400be20003003a0017
:100738000000fc000040eb00030037000000fc0054
:10074800f05980001040780000000600809fbe002d
:100758008a20a900860be200180032008110800070
:10076800e059800001587800e0598800b1b32000b2
:10077800810f500002003600c0af2000e059880009
:10078800f0032000400be30001003e00402bec008a
:10079800205c8000b080fb0081108800205c88000d
:1007a80011b82000810f50000200360020b420004c
:1007b800205c8800862bed000f0037008110800038
:1007c800e059800001587800e0598800b1b3200052
:1007d800810f500002003600c0af2000e0598800a9
:1007e800f0032000400be30001003e00402bec002a
:1007f80070052000801088004f00be0000400600f1
:10080800809fbe008a40a90012e2ab0002003a00b5
:1008180012c2ab000f00320081108000e059800046
:1008280001587800e0598800b1b32000810f5000ca
:1008380002003600c0af2000e0598800f003200015
:10084800400be30001003e00402bec0012e2a9003f
:1008580012c2a9004f00be00004006000080200020
:1008680010488800004888006090200040508800a8
:10087800305088000429ef000409f8000a0af9003a
:100888002002200040118800800028000011880004
:1008980000402000101188008560a9008c20a90064
:1008a8009560a8009c20a800000006009580a8007c
:1008b80000000600ff3ffc000409e20003003a00c4
:1008c8000000fc000040eb00020037000000fc00c4
:1008d80010c0b30000000600ff3ffc000409e2005e
:1008e80003003a000000fc000040eb000a0037005b
:1008f8000429ed000000fc00114880003140780018
:1009080011488800f28f2000828f500002003600c4
:100918000180200011488800000006003150800046
:10092800805878003150880050a02000808f5000f7
:10093800020036006090200030508800ff3ffc0025
:10094800f00f20000a0ae30001003e000a2aec002a
:100958000000fc0000000600ff3ffc005050800033
:100968000000fc000110200000805000000006007c
:10097800ff3ffc000409e20003003a000000fc000d
:100988000040eb00030037000000fc001048800026
:100998001040780000000600809fbe008560a90016
:1009a8003111800000488000015878000048880014
:1009b800f18f2000810f50000200360000802000d7
:1009c80000488800f00f20000409e30001003e0001
:1009d8000429ec004f00be0000400600809fbe00c6
:1009e8000a0ae2000e0032002322ab000d003a0092
:1009f8008580a90040508000b080fb00211188004c
:100a08004050880051a02000810f5000020036009d
:100a180060902000405088000a2aed00010037004d
:100a28009580a9004f00be0000400600809fbe00d0
:100a38008c20a9002222ab000e0032003111800068
:100a4800004880000158780000488800f18f200095
:100a5800810f500002003600008020000048880006
:100a6800f00f20000409e30001003e000429ec0017
:100a78002222a9002242a9002262a9004f00be003a
:100a880000400600f08f2f004427b600103a80007f
:100a980000c0a00000d0a10000e0a100103a88002a
:100aa800103a80000080a0000090a10000a0a100e2
:100ab800103a88004827ef004187a80040a7a900fe
:100ac800e024ef00e224ef00e264a800e3e4a800d9
:100ad8006e20ef007020ef005620ef005820ef0046
:100ae8006220ef006420ef00ce22ef00cdc2a90003
:100af800c9c2a900c902a800c842a800cd22a900fd
:100b0800c922a900c8e2a900c0ff2f001202b6003e
:100b18000020a0000030a100901088001282a900d7
:100b280018c2a90018e2a90012a2a800fd42a90053
:100b3800fd62a900ff3ffc00f20b2000103a800084
:100b4800000161006004200071052000237420006a
:100b5800804978008149780082497800123a8000fb
:100b68000260a00023742000804978008149780041
:100b7800824978000000fc00e00580000080a100a8
:100b88000090a00000a0a000e0058800e00580001b
:100b98000040a0000050a1000060a000e00588000f
:100ba800200680000040a1000006b300200688004f
:100bb800500580000000a0000010a1000020a00047
:100bc800500588004005800000c0a00000d0a100aa
:100bd80000e0a000400588002005800000c0a000bb
:100be80000d0a00000e0a1002005880010068000c9
:100bf8000080a1000090a00000a0a10010068800bd
:100c08006005800000c0a10000d0a00000e0a100a5
:100c180060058800500580000040a0000050a10039
:100c28000060a100500588000000060095ff07003d
:100c38002f0007000140fe004047a9000060fe00a9
:100c4800fbff3700881f780018c0b300f0ad200004
:100c580008487800d66aef00f02aef000080eb0021
:100c680090578800a05788000c2aef00e16aef002f
:100c7800e26aef00e36aef00e46aef00d96aef0086
:100c8800da6aef00db6aef00dc6aef00dd6aef008a
:100c9800de6aef00e56aef00e66aef00e76aef0058
:100ca800e86aef00d76aef00d86aef00ee6aef0053
:100cb800e96aef00ea6aef00eb6aef00ec6aef001e
:100cc80040382000c057880020c0b300e0eab700d1
:100cd800e2fe07007d0007001dfe0700b6000700c2
:100ce800cdc2a800084078004f0478000000060034
:100cf80031010700a0c0b300850007000004e00030
:100d0800060032000c0ae2000b0032005e01070008
:100d180080007800a0c0b300770007006050800012
:100d2800e10f50000d00320003003900e20f5000bf
:100d380024003a000c003700c2ff07000004e0005e
:100d48000300320020002000605088001d0037009a
:100d580010002000605088001a0037003000200082
:100d68003001070017003700100020002d01070090
:100d7800ea000700d74ae20001003200d76aef0014
:100d8800e0a0200010000700d6eab7000004e00049
:100d98000c003200e0a02000d8000700d0578800df
:100da80011c0b30010407800ac000700d057800095
:100db8001040900021c0b300a8000700800c20005c
:100dc800c057880000000600889fbe000004780015
:100dd8001cfe0700804078000040eb000104e000a2
:100de80027003200095d80001ffe070000f47c0028
:100df8008904e800095d880040062000808f5400bf
:100e080001003a00a02bef00105d80000000e00018
:100e180003003200e10f500017003a000b003700c2
:100e280001ae2000914078008100fb000040eb00fb
:100e3800025d8000810f510011003a00100020006f
:100e4800105d88000040eb000d003700a22bef007a
:100e5800005d80000004440078f997000040eb0032
:100e680071c5b300814f510005003a00a02bef0077
:100e780010c0b30002003700a22bef000040eb00c7
:100e88004f04be00000006000040eb000000060012
:100e9800000006000040eb00000006000040eb00e8
:100ea8000000060010c0b3000000060010c0b30028
:100eb8000000060010c0b3000000060010c0b30018
:100ec8000000060010002000000006000421ef00ca
:100ed8000021ef00f0f321001008880021088000ad
:100ee8000000280001007000200888008460a90024
:100ef8009460a800000006000080fb00000040008d
:100f080082b820000000410001884000000006006f
:100f18000080fb000000400081b8200061007800dc
:100f280000f0a7000000ea000000e9004f00de0022
:100f380000000600881f7800800078000040eb0061
:100f4800edff07000044eb00010037000140fe0000
:100f580008407800eeff07000004e000fbff3200c5
:100f68004f04780000000600809fbe00829fbe00ec
:100f78008460a9000000eb008000400082b82000d7
:100f8800e28078000100e0000500320080014000a6
:100f98008200780061817900838140008209e9003c
:100fa8000000e800ec0f5000f3ff3a004f01be00cc
:100fb8004f00be000040060075e2a8007582a80038
:100fc8007522a800a01380000000a1000010a00056
:100fd800a01388004be2a8004b82a8004ae2a800b0
:100fe800501280000030a0000040a1000050a00076
:100ff80050128800501280000000a0000010a100cc
:101008000020a0005012880079e2a8007982a80088
:101018007922a800c01380000000a1000010a000e1
:10102800c01388004de2a8004d82a8004ce2a80039
:10103800601280000030a0000040a1000050a00015
:1010480060128800601280000000a0000010a1005b
:101058000020a0006012880000000600e2cf5000c7
:1010680003003a000080fb00d0138800020037001c
:101078000080fb00b013880000000600889fbe00b7
:101088008a1f7800800478000105780087fd070032
:10109800804078000040eb000104e00014003a00b2
:1010a8000a00e000090032000004eb0097fd070089
:1010b800e10f50000d0036003940780084fd07002c
:1010c8000804e800880f5500f8ff3e0070c5b3001b
:1010d8007ffd0700cde2a90010c0b3002dfd070079
:1010e80047fd070010c0b300010037000040eb00c7
:1010f8004f0578004f04be0000000600104178003c
:1011080061ba2000824878001041900071ba20002e
:101118008248780060ba200000000600e54ae20034
:101128000700320050c0b30079ff07000004e00058
:1011380003003200e56aef0010c0b300d7eab70039
:10114800e64ae2000700320060c0b30070ff070003
:101158000004e00003003200e66aef0010c0b300ac
:10116800d7eab700e74ae2000700320070c0b300d0
:1011780067ff07000004e00003003200e76aef00a1
:1011880010c0b300d7eab700e84ae200070032000f
:1011980080c0b3005eff07000004e00003003200d7
:1011a800e86aef0010c0b300d7eab70000000600f5
:1011b8008660a90000400600205d80000000e00075
:1011c80003003200e10f500015003a000300370019
:1011d800cdc2a800cc02a9001100370010c0b3008e
:1011e8004bff07000004e0000d003200601680008d
:1011f8004e00de000080ea00610060004e00dd0065
:10120800f1ff2b0062168000828060008100700070
:1012180061168800c157800010c0b30036ff070070
:1012280000000600205d880000000600000006009f
:020000040000fa
:101238000c0a0000f000000000000000a40b0000f1
:101248000200000000000000fc0a00008c00000002
:1012580000000000880b00001800000000000000db
:10126800000800000c02000000000000a00b0000b5
:101278000400000000000000a60b000002000000af
:08128800000000005209800083
:020000040000fa
:10129000803e200000000600000006008640a900f5
:0412a0000040060004
:020000040000fa
:0412a4000000000046
:020000040000fa
:0200000401f009
:04000000ffff0000fe
:020000040000fa
:0200000401f009
:04000800ffff0000f6
:020000040000fa
:0200000401f009
:04000c0059ff000098
:020000040000fa
:0200000401f009
:040010000bff0000e2
:020000040000fa
:0200000401f009
:04001400ffff0000ea
:020000040000fa
:0200000401f009
:04001800ecff0000f9
:020000040000fa
:0200000401f009
:04001c00ffff0000e2
:00000001FF
