:020000040000fa
:080000000002040000000000f2
:020000040000fa
:04000800c80200002a
:020000040000fa
:04000c00c802000026
:020000040000fa
:04001000c802000022
:020000040000fa
:04001400c80200001e
:020000040000fa
:04001800c80200001a
:020000040000fa
:04001c00c802000016
:020000040000fa
:04002000c802000012
:020000040000fa
:04002400c80200000e
:020000040000fa
:04002800c80200000a
:020000040000fa
:04002c00c802000006
:020000040000fa
:04003000c802000002
:020000040000fa
:04003400e2070000df
:020000040000fa
:04003800c8020000fa
:020000040000fa
:04003c00c8020000f6
:020000040000fa
:04004000c8020000f2
:020000040000fa
:04004400c8020000ee
:020000040000fa
:04004800c8020000ea
:020000040000fa
:04004c00c8020000e6
:020000040000fa
:04005000c8020000e2
:020000040000fa
:04005400ea040000ba
:020000040000fa
:040058000c05000093
:020000040000fa
:04005c00c8020000d6
:020000040000fa
:04006000c8020000d2
:020000040000fa
:04006400c8020000ce
:020000040000fa
:04006800c8020000ca
:020000040000fa
:04006c00c8020000c6
:020000040000fa
:04007000780900000b
:020000040000fa
:04007400b4080000cc
:020000040000fa
:04007800c8020000ba
:020000040000fa
:04007c00c8020000b6
:020000040000fa
:04008000c8020000b2
:020000040000fa
:04008400c8020000ae
:020000040000fa
:04008800c8020000aa
:020000040000fa
:04008c00c8020000a6
:020000040000fa
:04009000c8020000a2
:020000040000fa
:04009400c80200009e
:020000040000fa
:04009800c80200009a
:020000040000fa
:04009c00c802000096
:020000040000fa
:0400a000c802000092
:020000040000fa
:0400a400c80200008e
:020000040000fa
:0400a800c80200008a
:020000040000fa
:0400ac00c802000086
:020000040000fa
:0400b000c802000082
:020000040000fa
:0400b400c80200007e
:020000040000fa
:0400b800c80200007a
:020000040000fa
:0400bc00c802000076
:020000040000fa
:0400c000c802000072
:020000040000fa
:0400c400c80200006e
:020000040000fa
:0400c800c80200006a
:020000040000fa
:0400cc00c802000066
:020000040000fa
:0400d000c802000062
:020000040000fa
:0400d400c80200005e
:020000040000fa
:0400d800c80200005a
:020000040000fa
:0400dc00c802000056
:020000040000fa
:0400e000c802000052
:020000040000fa
:0400e400c80200004e
:020000040000fa
:0400e800c80200004a
:020000040000fa
:0400ec00c403000049
:020000040000fa
:0400f0001e040000ea
:020000040000fa
:0400f400c80200003e
:020000040000fa
:0400f800c80200003a
:020000040000fa
:0400fc00c802000036
:020000040000fa
:04010000c802000031
:020000040000fa
:04010400c80200002d
:020000040000fa
:04010800c802000029
:020000040000fa
:04010c00c802000025
:020000040000fa
:04011000c802000021
:020000040000fa
:04011400c80200001d
:020000040000fa
:04011800c802000019
:020000040000fa
:04011c00c802000015
:020000040000fa
:04012000c802000011
:020000040000fa
:04012400c80200000d
:020000040000fa
:04012800c802000009
:020000040000fa
:04012c003405000096
:020000040000fa
:04013000c802000001
:020000040000fa
:04013400c8020000fd
:020000040000fa
:04013800c8020000f9
:020000040000fa
:04013c00c8020000f5
:020000040000fa
:04014000c8020000f1
:020000040000fa
:04014400c8020000ed
:020000040000fa
:04014800c8020000e9
:020000040000fa
:04014c00c8020000e5
:020000040000fa
:04015000c8020000e1
:020000040000fa
:04015400c8020000dd
:020000040000fa
:04015800c8020000d9
:020000040000fa
:04015c00c8020000d5
:020000040000fa
:04016000c8020000d1
:020000040000fa
:04016400c8020000cd
:020000040000fa
:04016800c8020000c9
:020000040000fa
:04016c00c8020000c5
:020000040000fa
:04017000c8020000c1
:020000040000fa
:04017400c8020000bd
:020000040000fa
:04017800c8020000b9
:020000040000fa
:04017c00c8020000b5
:020000040000fa
:04018000c8020000b1
:020000040000fa
:04018400c8020000ad
:020000040000fa
:04018800c8020000a9
:020000040000fa
:04018c00c8020000a5
:020000040000fa
:04019000c8020000a1
:020000040000fa
:04019400c80200009d
:020000040000fa
:04019800c802000099
:020000040000fa
:04019c00c802000095
:020000040000fa
:0401a000c802000091
:020000040000fa
:0401a400c80200008d
:020000040000fa
:0401a800c802000089
:020000040000fa
:0401ac00c802000085
:020000040000fa
:04020800c802000028
:020000040000fa
:04020c00c802000024
:020000040000fa
:04021000c802000020
:020000040000fa
:04021400c80200001c
:020000040000fa
:04021800c802000018
:020000040000fa
:04021c00c802000014
:020000040000fa
:04022000c802000010
:020000040000fa
:04022400c80200000c
:020000040000fa
:04022800c802000008
:020000040000fa
:04022c00c802000004
:020000040000fa
:04023000c802000000
:020000040000fa
:04023400c8020000fc
:020000040000fa
:04023800c8020000f8
:020000040000fa
:04023c00c8020000f4
:020000040000fa
:04024000c8020000f0
:020000040000fa
:04024400c8020000ec
:020000040000fa
:04024800c8020000e8
:020000040000fa
:04024c00c8020000e4
:020000040000fa
:04025000c8020000e0
:020000040000fa
:04025400c8020000dc
:020000040000fa
:04025800c8020000d8
:020000040000fa
:04025c00c8020000d4
:020000040000fa
:04026000c8020000d0
:020000040000fa
:04026400c8020000cc
:020000040000fa
:04026800c8020000c8
:020000040000fa
:04026c00c8020000c4
:020000040000fa
:04027000c8020000c0
:020000040000fa
:04027400c8020000bc
:020000040000fa
:04027800c8020000b8
:020000040000fa
:04027c00c8020000b4
:020000040000fa
:04028000c8020000b0
:020000040000fa
:04028400c8020000ac
:020000040000fa
:04028800c8020000a8
:020000040000fa
:04028c00c8020000a4
:020000040000fa
:04029000c8020000a0
:020000040000fa
:04029400c80200009c
:020000040000fa
:04029800c802000098
:020000040000fa
:04029c00c802000094
:020000040000fa
:0402a000c802000090
:020000040000fa
:0402a400c80200008c
:020000040000fa
:0402a800c802000088
:020000040000fa
:0402ac00c802000084
:020000040000fa
:0402b000c802000080
:020000040000fa
:0402b400c80200007c
:020000040000fa
:0402b800c802000078
:020000040000fa
:0402bc00c802000074
:020000040000fa
:0402c000c802000070
:020000040000fa
:0402c400c80200006c
:020000040000fa
:0402c800c802000068
:020000040000fa
:0402cc00c802000064
:020000040000fa
:0402d000c802000060
:020000040000fa
:0402d400c80200005c
:020000040000fa
:0402d800c802000058
:020000040000fa
:0402dc00c802000054
:020000040000fa
:0402e000c802000050
:020000040000fa
:0402e400c80200004c
:020000040000fa
:0402e800c802000048
:020000040000fa
:0402ec00c802000044
:020000040000fa
:0402f000c802000040
:020000040000fa
:0402f400c80200003c
:020000040000fa
:0402f800c802000038
:020000040000fa
:0402fc00c802000034
:020000040000fa
:04030000c80200002f
:020000040000fa
:04030400c80200002b
:020000040000fa
:04030800c802000027
:020000040000fa
:04030c00c802000023
:020000040000fa
:04031000c80200001f
:020000040000fa
:04031400c80200001b
:020000040000fa
:04031800c802000017
:020000040000fa
:04031c00c802000013
:020000040000fa
:04032000c80200000f
:020000040000fa
:04032400c80200000b
:020000040000fa
:04032800c802000007
:020000040000fa
:04032c00c802000003
:020000040000fa
:04033000c8020000ff
:020000040000fa
:04033400c8020000fb
:020000040000fa
:04033800c8020000f7
:020000040000fa
:04033c00c8020000f3
:020000040000fa
:04034000c8020000ef
:020000040000fa
:04034400c8020000eb
:020000040000fa
:04034800c8020000e7
:020000040000fa
:04034c00c8020000e3
:020000040000fa
:04035000c8020000df
:020000040000fa
:04035400c8020000db
:020000040000fa
:04035800c8020000d7
:020000040000fa
:04035c00c8020000d3
:020000040000fa
:04036000c8020000cf
:020000040000fa
:04036400c8020000cb
:020000040000fa
:04036800c8020000c7
:020000040000fa
:04036c00c8020000c3
:020000040000fa
:04037000c8020000bf
:020000040000fa
:04037400c8020000bb
:020000040000fa
:04037800c8020000b7
:020000040000fa
:04037c00c8020000b3
:020000040000fa
:04038000c8020000af
:020000040000fa
:04038400c8020000ab
:020000040000fa
:04038800c8020000a7
:020000040000fa
:04038c00c8020000a3
:020000040000fa
:04039000c80200009f
:020000040000fa
:04039400c80200009b
:020000040000fa
:04039800c802000097
:020000040000fa
:04039c00c802000093
:020000040000fa
:0403a000c80200008f
:020000040000fa
:0403a400c80200008b
:020000040000fa
:0403a800c802000087
:020000040000fa
:0403ac00c802000083
:020000040000fa
:10040000efba20000eff20000e018800000000005f
:10041000000020000000e000020032000001200087
:1004200020028800140007005b0007000000e000c5
:1004300003003a0000942000010020000200370071
:100440000000200001002000810f70000100320038
:1004500014000700000020000000e000020032004d
:1004600000000200000000000a0702000000000077
:100470000040da000000fe004440a9000000200017
:100480000000e0000300320000002000a00188000e
:100490004440a800000006008a1f78008b1f7800e7
:1004a0000000060091018800800478000000eb0045
:1004b0001a003700e284440032a0b4009905ba0063
:1004c000e284440032a0b4009906ba00e2844400f9
:1004d00032a0b4000006eb00476fde00fd07b2005b
:1004e000636ce10003003a00ebff07000000eb0043
:1004f0000a003700606ce10004003a00005deb0088
:100500008b05e900fdff3e00040037006168e10053
:10051000010032000086eb000b00070019c7ba008b
:100520001905ba000e04e00003003a000a00e000da
:10053000e0ff3a0000000600fe07b2009e018800be
:100540008a047800f5ff3700395dba008b05e900b1
:100550000c003200295dba008b05e900080032006a
:100560000c00e00003003a00e284440032a0b40032
:10057000f5ff370019ddba008b05e900faff3a00f4
:100580008904e800e184440032a0b40000000600c1
:0c0590000040da000000fe000000050042
:020000040000fa
:10059c00c8c2a900c8a2a800c0e2a800c982a800cd
:1005ac00c0af2000f0598800e059880020b420002a
:1005bc00205c8800105c8800862bef00402bef003d
:1005cc008a20a9008a40a9009a20a8009a40a80075
:1005dc0000000600e14f500005003a0000ff2f001c
:1005ec001202b6000000a000901088000400370032
:1005fc0000ff2f001202b6000010a000901088001f
:10060c0000000600ff3ffc00c0af2000f05988003e
:10061c00e059880020b42000205c8800105c880021
:10062c00862bef00402bef000000fc0000000600c2
:10063c00ff3ffc00860be2000c003200205c8000c7
:10064c00b080fb0081108800205c880011b820006d
:10065c00810f50000200360020b42000205c88007e
:10066c00862bed000000fc00010037000000fc00b0
:10067c0000000600ff3ffc00400be20003003a00c4
:10068c000000fc000040eb00020037000000fc0002
:10069c0010c0b30000000600ff3ffc00400be2005e
:1006ac0003003a000000fc000040eb000a00370099
:1006bc00402bed000000fc00f15980003140780027
:1006cc00f1598800b2b32000828f5000020036002e
:1006dc00c1af2000f159880000000600ff3ffc006c
:1006ec00860be20003003a000000fc000040eb0027
:1006fc00020037000000fc0010c0b3000000060030
:10070c00115c800080587800115c880010b82000c3
:10071c00808f50000200360020b42000105c88004e
:10072c00ff3ffc00f0032000860be30001003e00bd
:10073c00862bec000000fc0000000600ff3ffc00d4
:10074c00305c80000000fc000104200000805000a0
:10075c0000000600ff3ffc00400be20003003a00e3
:10076c000000fc000040eb00030037000000fc0020
:10077c00f05980001040780000000600809fbe00f9
:10078c008a20a900860be20018003200811080003c
:10079c00e059800001587800e0598800b1b320007e
:1007ac00810f500002003600c0af2000e0598800d5
:1007bc00f0032000400be30001003e00402bec0056
:1007cc00205c8000b080fb0081108800205c8800d9
:1007dc0011b82000810f50000200360020b4200018
:1007ec00205c8800862bed000f0037008110800004
:1007fc00e059800001587800e0598800b1b320001e
:10080c00810f500002003600c0af2000e059880074
:10081c00f0032000400be30001003e00402bec00f5
:10082c0070002000801088004f00be0000400600c1
:10083c00809fbe008a40a90012e2ab0002003a0081
:10084c0012c2ab000f00320081108000e059800012
:10085c0001587800e0598800b1b32000810f500096
:10086c0002003600c0af2000e0598800f0032000e1
:10087c00400be30001003e00402bec0012e2a9000b
:10088c0012c2a9004f00be000040060000802000ec
:10089c001048880000488800609020004050880074
:1008ac00305088000429ef000409f8000a0af90006
:1008bc0020022000401188008000280000118800d0
:1008cc0000402000101188008560a9008c20a90030
:1008dc009560a8009c20a800000006009580a80048
:1008ec0000000600ff3ffc000409e20003003a0090
:1008fc000000fc000040eb00020037000000fc0090
:10090c0010c0b30000000600ff3ffc000409e20029
:10091c0003003a000000fc000040eb000a00370026
:10092c000429ed000000fc001148800031407800e3
:10093c0011488800f28f2000828f50000200360090
:10094c000180200011488800000006003150800012
:10095c00805878003150880050a02000808f5000c3
:10096c00020036006090200030508800ff3ffc00f1
:10097c00f00f20000a0ae30001003e000a2aec00f6
:10098c000000fc0000000600ff3ffc0050508000ff
:10099c000000fc0001102000008050000000060048
:1009ac00ff3ffc000409e20003003a000000fc00d9
:1009bc000040eb00030037000000fc0010488000f2
:1009cc001040780000000600809fbe008560a900e2
:1009dc0031118000004880000158780000488800e0
:1009ec00f18f2000810f50000200360000802000a3
:1009fc0000488800f00f20000409e30001003e00cd
:100a0c000429ec004f00be0000400600809fbe0091
:100a1c000a0ae2000e0032002322ab000d003a005d
:100a2c008580a90040508000b080fb002111880017
:100a3c004050880051a02000810f50000200360069
:100a4c0060902000405088000a2aed000100370019
:100a5c009580a9004f00be0000400600809fbe009c
:100a6c008c20a9002222ab000e0032003111800034
:100a7c00004880000158780000488800f18f200061
:100a8c00810f5000020036000080200000488800d2
:100a9c00f00f20000409e30001003e000429ec00e3
:100aac002222a9002242a9002262a9004f00be0006
:100abc0000400600881f780018c0b300f0ad20007d
:100acc0008487800d66aef00f02aef000080eb00af
:100adc0090578800a05788000c2aef00e16aef00bd
:100aec00e26aef00e36aef00e46aef00d96aef0014
:100afc00da6aef00db6aef00dc6aef00dd6aef0018
:100b0c00de6aef00e56aef00e66aef00e76aef00e5
:100b1c00e86aef00d76aef00d86aef00ee6aef00e0
:100b2c00e96aef00ea6aef00eb6aef00ec6aef00ab
:100b3c0040382000c057880070c0b300e0eab7000e
:100b4c0052ff0700f700070091fe07002e01070077
:100b5c00cdc2a800084078004f04780000000600c1
:100b6c00a7010700a0c0b300fd0007000004e000cf
:100b7c00060032000c0ae2000b003200d60107001e
:100b8c0080007800a0c0b300ef0007006050800028
:100b9c00e10f50000d00320003003900e20f50004d
:100bac0032003a000c003700c2ff07000004e000de
:100bbc000300320020002000605088002b0037001a
:100bcc001000200060508800280037003000200002
:100bdc00a50107002500370010002000a201070026
:100bec0039010700d74ae20001003200d76aef0052
:100bfc00e0a020008a000700d6eab7000004e0005d
:100c0c001a003200e0a0200075010700d0578800c0
:100c1c007cfe0700d05780001040900011c0b3003c
:100c2c0021010700d05780002040900021c0b30064
:100c3c001d010700800c2000c0578800e1cdb300d7
:100c4c00d057800031409800d1cab300d0578000f3
:100c5c004140980071c5b300d05780007140980096
:100c6c00fa0aec008040eb003e0107000000060091
:100c7c00f18f2f004074200010886000f0ff2800d6
:100c8c00133a80000301600002c0a000123a8800f1
:100c9c00143a8000048160000280a000123a88009f
:100cac004827ef004187a80040a7a900e024ef00e7
:100cbc00e224ef00e264a800e3e4a8006e20ef0059
:100ccc007020ef005620ef005820ef006220ef005c
:100cdc006420ef00ce22ef00cdc2a900c9c2a9004a
:100cec00c902a800c842a800cd22a900c922a900a7
:100cfc00c8e2a90002ff2f009310800003016100dd
:100d0c000220a000921088001282a90018c2a9002b
:100d1c0018e2a90012a2a800fd42a900fd62a900d8
:100d2c00ff3ffc00f40b2000123a8000020262002c
:100d3c00620420007305200025742000824a78008c
:100d4c00834a7800844a7800143a80000460a0003a
:100d5c0025742000824a7800834a7800844a7800ff
:100d6c000000fc00e405800084816000026020002b
:100d7c0003017100e2058800f2f82f00e405800001
:100d8c00840161000305b300e3058800240680009c
:100d9c00840161000306b3002306880083ff2f0043
:100dac0054058000848161005300b3005305880012
:100dbc00430580000302600003002500848171005c
:100dcc004305880023058000030260000300230014
:100ddc0084817100230588001406800084806000e3
:100dec000190a00011068800ac00b60000d0a00055
:100dfc006005880050058000000161000240a000e1
:100e0c00520588000000060099ff070054ff0700f8
:100e1c000140fe004047a9000060fe00fbff3700c8
:100e2c00889fbe000004780012fe07008040780006
:100e3c000040eb000104e00027003200495d800017
:100e4c0015fe070000f47c008904e800495d880069
:100e5c0040062000808f540001003a00a82bef00c0
:100e6c00505d80000000e00003003200e10f5000f4
:100e7c0017003a000b00370001ae200091407800bb
:100e8c008100fb000040eb00425d8000810f5100af
:100e9c0011003a0010002000505d88000040eb006b
:100eac000d003700aa2bef00405d800000044400c9
:100ebc0078f997000040eb0071c5b300814f5100e9
:100ecc0005003a00a82bef0010c0b3000200370059
:100edc00aa2bef000040eb004f04be000000060000
:100eec000040eb0000000600000006000040eb0094
:100efc00000006000040eb000000060010c0b3002c
:100f0c000000060010c0b3000000060010c0b300c3
:100f1c000000060010c0b300000006001000200006
:100f2c00000006000421ef000021ef00f0f3210087
:100f3c0010088800000028000421b7008460a90074
:100f4c009460a800000006000080fb000000400038
:100f5c0082b820000000410001884000000006001b
:100f6c000080fb000000400081b820006100780088
:100f7c0000f0a7000000ea000000e9004f00de00ce
:100f8c0000000600881f7800800078000040eb000d
:100f9c00edff07000044eb00010037000140fe00ac
:100fac0008407800eeff07000004e000fbff320071
:100fbc004f04780000000600809fbe00829fbe0098
:100fcc008460a9000000eb008000400082b8200083
:100fdc00e28078000100e000050032008001400052
:100fec008200780061817900838140008209e900e8
:100ffc000000e800ec0f5000f3ff3a004f01be0078
:10100c004f00be000040060075e2a8007582a800e3
:10101c007522a800c3ff2f00a1138000018061007e
:10102c000010a000a01388004be2a8004b82a8007f
:10103c004ae2a80072fc2f005412800004006100e8
:10104c0081022000008070005012880080ff2f0069
:10105c0055128000050260005400b3005412880041
:10106c0079e2a8007982a8007922a800c413800034
:10107c00848161000310a000c31388004de2a80016
:10108c004d82a8004ce2a8006512800005016100a9
:10109c0002817000621288004c02b6005000b3004e
:1010ac006012880000000600e2cf500003003a00f6
:1010bc000080fb00d0138800020037000080fb008a
:1010cc00b013880000000600e54ae2000700320079
:1010dc0050c0b300a2ff07000004e0000300320080
:1010ec00e56aef0010c0b300d7eab700e64ae200a9
:1010fc000700320060c0b30099ff07000004e00055
:10110c0003003200e66aef0010c0b300d7eab70064
:10111c00e74ae2000700320070c0b30090ff0700fe
:10112c000004e00003003200e76aef0010c0b300d7
:10113c00d7eab700e84ae2000700320080c0b300eb
:10114c0087ff07000004e00003003200e86aef00ac
:10115c0010c0b300d7eab700000006008660a900f3
:10116c0000400600889fbe008a1f780000047800ab
:10117c000145780059fd0700804078000040eb00e5
:10118c000104e00013003a00e70444006bfd070083
:10119c00e10f50000e0036003840780058fd070073
:1011ac00890f5400f9ff3a0070c5b30054fd0700d5
:1011bc0010c0b3000a04e0000600320005fd070071
:1011cc00cde2a9001afd070010c0b30001003700e2
:1011dc000040eb004f0578004f04be0000000600f5
:1011ec0001ba200006000900b05878007000b10068
:1011fc0000ba20000000060000ba20000000060023
:10120c00605d80000000e00003003200e10f500040
:10121c0014003a0003003700cdc2a800cc02a9008c
:10122c001000370010c0b3004dff07000004e000b1
:10123c000c003200601680004e00de000080ea00d8
:10124c00610060004e00dd006116800001e0a1002d
:10125c008100700061168800c157800010c0b30077
:10126c0039ff070000000600605d880000000600e2
:04127c000000060068
:020000040000fa
:101280000c0a0000f000000000000000ac0b0000a1
:101290000200000000000000fc0a00008c000000ba
:1012a00000000000880b0000180000000000000093
:1012b000000800000c02000000000000a80b000065
:1012c0000400000000000000a00b00000800000067
:1012d0000200000007000000000000000000000005
:0412e000000000000a
:020000040000fa
:1012e400803e200000000600000006008640a900a1
:0412f40000400600b0
:020000040000fa
:0200000401f009
:04000000ffff0000fe
:020000040000fa
:0200000401f009
:04000800ffff0000f6
:020000040000fa
:0200000401f009
:04000c0059ff000098
:020000040000fa
:0200000401f009
:040010000bff0000e2
:020000040000fa
:0200000401f009
:04001400ffff0000ea
:020000040000fa
:0200000401f009
:04001800ecff0000f9
:020000040000fa
:0200000401f009
:04001c00ffff0000e2
:00000001FF
