:020000040000fa
:080000000002040000000000f2
:020000040000fa
:04000800a80200004a
:020000040000fa
:04000c00a802000046
:020000040000fa
:04001000a802000042
:020000040000fa
:04001400a80200003e
:020000040000fa
:04001800a80200003a
:020000040000fa
:04001c00a802000036
:020000040000fa
:04002000a802000032
:020000040000fa
:04002400a80200002e
:020000040000fa
:04002800a80200002a
:020000040000fa
:04002c00a802000026
:020000040000fa
:04003000a802000022
:020000040000fa
:040034009807000029
:020000040000fa
:04003800a80200001a
:020000040000fa
:04003c00a802000016
:020000040000fa
:04004000a802000012
:020000040000fa
:04004400a80200000e
:020000040000fa
:04004800a80200000a
:020000040000fa
:04004c00a802000006
:020000040000fa
:04005000a802000002
:020000040000fa
:04005400b0040000f4
:020000040000fa
:04005800d2040000ce
:020000040000fa
:04005c00a8020000f6
:020000040000fa
:04006000a8020000f2
:020000040000fa
:04006400a8020000ee
:020000040000fa
:04006800a8020000ea
:020000040000fa
:04006c00a8020000e6
:020000040000fa
:04007000d8080000ac
:020000040000fa
:040074006c08000014
:020000040000fa
:04007800a8020000da
:020000040000fa
:04007c00a8020000d6
:020000040000fa
:04008000a8020000d2
:020000040000fa
:04008400a8020000ce
:020000040000fa
:04008800a8020000ca
:020000040000fa
:04008c00a8020000c6
:020000040000fa
:04009000a8020000c2
:020000040000fa
:04009400a8020000be
:020000040000fa
:04009800a8020000ba
:020000040000fa
:04009c00a8020000b6
:020000040000fa
:0400a000a8020000b2
:020000040000fa
:0400a400a8020000ae
:020000040000fa
:0400a800a8020000aa
:020000040000fa
:0400ac00a8020000a6
:020000040000fa
:0400b000a8020000a2
:020000040000fa
:0400b400a80200009e
:020000040000fa
:0400b800a80200009a
:020000040000fa
:0400bc00a802000096
:020000040000fa
:0400c000a802000092
:020000040000fa
:0400c400a80200008e
:020000040000fa
:0400c800a80200008a
:020000040000fa
:0400cc00a802000086
:020000040000fa
:0400d000a802000082
:020000040000fa
:0400d400a80200007e
:020000040000fa
:0400d800a80200007a
:020000040000fa
:0400dc00a802000076
:020000040000fa
:0400e000a802000072
:020000040000fa
:0400e400a80200006e
:020000040000fa
:0400e800a80200006a
:020000040000fa
:0400ec008a03000083
:020000040000fa
:0400f000e403000025
:020000040000fa
:0400f400a80200005e
:020000040000fa
:0400f800a80200005a
:020000040000fa
:0400fc00a802000056
:020000040000fa
:04010000a802000051
:020000040000fa
:04010400a80200004d
:020000040000fa
:04010800a802000049
:020000040000fa
:04010c00a802000045
:020000040000fa
:04011000a802000041
:020000040000fa
:04011400a80200003d
:020000040000fa
:04011800a802000039
:020000040000fa
:04011c00a802000035
:020000040000fa
:04012000a802000031
:020000040000fa
:04012400a80200002d
:020000040000fa
:04012800a802000029
:020000040000fa
:04012c00fa040000d1
:020000040000fa
:04013000a802000021
:020000040000fa
:04013400a80200001d
:020000040000fa
:04013800a802000019
:020000040000fa
:04013c00a802000015
:020000040000fa
:04014000a802000011
:020000040000fa
:04014400a80200000d
:020000040000fa
:04014800a802000009
:020000040000fa
:04014c00a802000005
:020000040000fa
:04015000a802000001
:020000040000fa
:04015400a8020000fd
:020000040000fa
:04015800a8020000f9
:020000040000fa
:04015c00a8020000f5
:020000040000fa
:04016000a8020000f1
:020000040000fa
:04016400a8020000ed
:020000040000fa
:04016800a8020000e9
:020000040000fa
:04016c00a8020000e5
:020000040000fa
:04017000a8020000e1
:020000040000fa
:04017400a8020000dd
:020000040000fa
:04017800a8020000d9
:020000040000fa
:04017c00a8020000d5
:020000040000fa
:04018000a8020000d1
:020000040000fa
:04018400a8020000cd
:020000040000fa
:04018800a8020000c9
:020000040000fa
:04018c00a8020000c5
:020000040000fa
:04019000a8020000c1
:020000040000fa
:04019400a8020000bd
:020000040000fa
:04019800a8020000b9
:020000040000fa
:04019c00a8020000b5
:020000040000fa
:0401a000a8020000b1
:020000040000fa
:0401a400a8020000ad
:020000040000fa
:0401a800a8020000a9
:020000040000fa
:0401ac00a8020000a5
:020000040000fa
:04020800a802000048
:020000040000fa
:04020c00a802000044
:020000040000fa
:04021000a802000040
:020000040000fa
:04021400a80200003c
:020000040000fa
:04021800a802000038
:020000040000fa
:04021c00a802000034
:020000040000fa
:04022000a802000030
:020000040000fa
:04022400a80200002c
:020000040000fa
:04022800a802000028
:020000040000fa
:04022c00a802000024
:020000040000fa
:04023000a802000020
:020000040000fa
:04023400a80200001c
:020000040000fa
:04023800a802000018
:020000040000fa
:04023c00a802000014
:020000040000fa
:04024000a802000010
:020000040000fa
:04024400a80200000c
:020000040000fa
:04024800a802000008
:020000040000fa
:04024c00a802000004
:020000040000fa
:04025000a802000000
:020000040000fa
:04025400a8020000fc
:020000040000fa
:04025800a8020000f8
:020000040000fa
:04025c00a8020000f4
:020000040000fa
:04026000a8020000f0
:020000040000fa
:04026400a8020000ec
:020000040000fa
:04026800a8020000e8
:020000040000fa
:04026c00a8020000e4
:020000040000fa
:04027000a8020000e0
:020000040000fa
:04027400a8020000dc
:020000040000fa
:04027800a8020000d8
:020000040000fa
:04027c00a8020000d4
:020000040000fa
:04028000a8020000d0
:020000040000fa
:04028400a8020000cc
:020000040000fa
:04028800a8020000c8
:020000040000fa
:04028c00a8020000c4
:020000040000fa
:04029000a8020000c0
:020000040000fa
:04029400a8020000bc
:020000040000fa
:04029800a8020000b8
:020000040000fa
:04029c00a8020000b4
:020000040000fa
:0402a000a8020000b0
:020000040000fa
:0402a400a8020000ac
:020000040000fa
:0402a800a8020000a8
:020000040000fa
:0402ac00a8020000a4
:020000040000fa
:0402b000a8020000a0
:020000040000fa
:0402b400a80200009c
:020000040000fa
:0402b800a802000098
:020000040000fa
:0402bc00a802000094
:020000040000fa
:0402c000a802000090
:020000040000fa
:0402c400a80200008c
:020000040000fa
:0402c800a802000088
:020000040000fa
:0402cc00a802000084
:020000040000fa
:0402d000a802000080
:020000040000fa
:0402d400a80200007c
:020000040000fa
:0402d800a802000078
:020000040000fa
:0402dc00a802000074
:020000040000fa
:0402e000a802000070
:020000040000fa
:0402e400a80200006c
:020000040000fa
:0402e800a802000068
:020000040000fa
:0402ec00a802000064
:020000040000fa
:0402f000a802000060
:020000040000fa
:0402f400a80200005c
:020000040000fa
:0402f800a802000058
:020000040000fa
:0402fc00a802000054
:020000040000fa
:04030000a80200004f
:020000040000fa
:04030400a80200004b
:020000040000fa
:04030800a802000047
:020000040000fa
:04030c00a802000043
:020000040000fa
:04031000a80200003f
:020000040000fa
:04031400a80200003b
:020000040000fa
:04031800a802000037
:020000040000fa
:04031c00a802000033
:020000040000fa
:04032000a80200002f
:020000040000fa
:04032400a80200002b
:020000040000fa
:04032800a802000027
:020000040000fa
:04032c00a802000023
:020000040000fa
:04033000a80200001f
:020000040000fa
:04033400a80200001b
:020000040000fa
:04033800a802000017
:020000040000fa
:04033c00a802000013
:020000040000fa
:04034000a80200000f
:020000040000fa
:04034400a80200000b
:020000040000fa
:04034800a802000007
:020000040000fa
:04034c00a802000003
:020000040000fa
:04035000a8020000ff
:020000040000fa
:04035400a8020000fb
:020000040000fa
:04035800a8020000f7
:020000040000fa
:04035c00a8020000f3
:020000040000fa
:04036000a8020000ef
:020000040000fa
:04036400a8020000eb
:020000040000fa
:04036800a8020000e7
:020000040000fa
:04036c00a8020000e3
:020000040000fa
:04037000a8020000df
:020000040000fa
:04037400a8020000db
:020000040000fa
:04037800a8020000d7
:020000040000fa
:04037c00a8020000d3
:020000040000fa
:04038000a8020000cf
:020000040000fa
:04038400a8020000cb
:020000040000fa
:04038800a8020000c7
:020000040000fa
:04038c00a8020000c3
:020000040000fa
:04039000a8020000bf
:020000040000fa
:04039400a8020000bb
:020000040000fa
:04039800a8020000b7
:020000040000fa
:04039c00a8020000b3
:020000040000fa
:0403a000a8020000af
:020000040000fa
:0403a400a8020000ab
:020000040000fa
:0403a800a8020000a7
:020000040000fa
:0403ac00a8020000a3
:020000040000fa
:100400004fba20000eff20000e01880000000000ff
:10041000000020000000e000020032000001200087
:10042000200288000c000700c08a20000100200084
:1004300011000700000020000000e0000200320070
:1004400000000200000000000206020000000000a0
:100450000040da000000fe004440a9000000200037
:100460000000e0000300320000002000a00188002e
:100470004440a80000000600910188008000780038
:100480000000eb0015003700e280400032a0b4000d
:100490009101ba00e280400032a0b4009102ba009b
:1004a000e280400032a0b4000002eb00472bde00e7
:1004b000f507b200602ce10004003a000059eb009f
:1004c0008301e900fdff3e00040037006128e100e0
:1004d000010032000082eb000b00070011c3ba00dc
:1004e0001101ba000604e00003003a000200e00037
:1004f000e5ff3a0000000600f607b200960188000a
:1005000082007800f5ff37003159ba008301e90015
:100510000c0032002159ba008301e90008003200c2
:100520000400e00003003a00e280400032a0b40082
:10053000f5ff370011d9ba008301e900faff3a004c
:100540008100e800e180400032a0b4000000060015
:080550000040da000000fe008b
:020000040000fa
:10055800c8c2a900c8a2a800c0e2a800c982a80011
:10056800a0af2000e0598800d059880000b42000ce
:10057800105c8800005c8800842bef003e2bef00a5
:100588008a20a9008a40a9009a20a8009a40a800b9
:1005980000000600ff3ffc00a0af2000e0598800e3
:1005a800d059880000b42000105c8800005c8800e6
:1005b800842bef003e2bef000000fc00000006003b
:1005c800ff3ffc00840be2000c003200105c80004e
:1005d800b080fb0081108800105c8800f1b7200013
:1005e800810f50000200360000b42000105c880023
:1005f800842bed000000fc00010037000000fc0027
:1006080000000600ff3ffc003e0be20003003a003a
:100618000000fc000040eb00020037000000fc0076
:1006280010c0b30000000600ff3ffc003e0be200d4
:1006380003003a000000fc000040eb000a0037000d
:100648003e2bed000000fc00e159800031407800ad
:10065800e159880092b32000828f500002003600d2
:10066800a1af2000e159880000000600ff3ffc0010
:10067800840be20003003a000000fc000040eb009d
:10068800020037000000fc0010c0b30000000600a4
:10069800015c800080587800015c8800f0b7200079
:1006a800808f50000200360000b42000005c8800f3
:1006b800ff3ffc00f0032000840be30001003e0034
:1006c800842bec000000fc0000000600ff3ffc004b
:1006d800205c80000000fc00010420000080500025
:1006e80000000600ff3ffc003e0be20003003a005a
:1006f8000000fc000040eb00030037000000fc0095
:10070800e05980001040780000000600809fbe007d
:100718008a20a900840be2001800320081108000b2
:10072800d059800001587800d059880091b3200032
:10073800810f500002003600a0af2000d059880079
:10074800f00320003e0be30001003e003e2bec00ce
:10075800105c8000b080fb0081108800105c88006d
:10076800f1b72000810f50000200360000b42000cd
:10077800105c8800842bed000f003700811080008a
:10078800d059800001587800d059880091b32000d2
:10079800810f500002003600a0af2000d059880019
:1007a800f00320003e0be30001003e003e2bec006e
:1007b800f00f2000801088004f00be0000400600a7
:1007c800809fbe008a40a90012e2ab0002003a00f6
:1007d80012c2ab000f00320081108000d059800097
:1007e80001587800d059880091b32000810f50003b
:1007f80002003600a0af2000d0598800f003200086
:100808003e0be30001003e003e2bec0012e2a90083
:1008180012c2a9004f00be00004006000080200060
:1008280010488800004888006090200040508800e8
:10083800305088000429ef000409f8000a0af9007a
:100848002002200040118800800028000011880044
:1008580000402000101188008560a9008c20a900a4
:100868009560a8009c20a800000006009580a800bc
:1008780000000600ff3ffc000409e20003003a0004
:100888000000fc000040eb00020037000000fc0004
:1008980010c0b30000000600ff3ffc000409e2009e
:1008a80003003a000000fc000040eb000a0037009b
:1008b8000429ed000000fc00114880003140780058
:1008c80011488800f28f2000828f50000200360005
:1008d8000180200011488800000006003150800087
:1008e800805878003150880050a02000808f500038
:1008f800020036006090200030508800ff3ffc0066
:10090800f00f20000a0ae30001003e000a2aec006a
:100918000000fc0000000600ff3ffc005050800073
:100928000000fc00011020000080500000000600bc
:10093800ff3ffc000409e20003003a000000fc004d
:100948000040eb00030037000000fc001048800066
:100958001040780000000600809fbe008560a90056
:100968003111800000488000015878000048880054
:10097800f18f2000810f5000020036000080200017
:1009880000488800f00f20000409e30001003e0041
:100998000429ec004f00be0000400600809fbe0006
:1009a8000a0ae2000e0032002322ab000d003a00d2
:1009b8008580a90040508000b080fb00211188008c
:1009c8004050880051a02000810f500002003600de
:1009d80060902000405088000a2aed00010037008e
:1009e8009580a9004f00be0000400600809fbe0011
:1009f8008c20a9002222ab000e00320031118000a9
:100a0800004880000158780000488800f18f2000d5
:100a1800810f500002003600008020000048880046
:100a2800f00f20000409e30001003e000429ec0057
:100a38002222a9002242a9002262a9004f00be007a
:100a480000400600f08f2f004427b600103a8000bf
:100a580000c0a00000d0a10000e0a100103a88006a
:100a6800103a80000080a0000090a10000a0a10022
:100a7800103a88004827ef004187a80040a7a9003e
:100a8800e024ef00e224ef006e20ef007020ef007a
:100a98005620ef005820ef006220ef006420ef009e
:100aa800ce22ef00cc02a900cc02a900cc02a900fa
:100ab800c9a2a900c882a900c862a900cdc2a9001c
:100ac800c9c2a900c902a800c842a800cd22a9002d
:100ad800c922a900c8e2a900c0ff2f001202b6006f
:100ae8000020a0000030a100901088001282a90008
:100af80018c2a90018e2a90012a2a800fd42a90084
:100b0800fd62a900ff3ffc00f20b2000103a8000b4
:100b1800000161006004200071052000237420009a
:100b2800804978008149780082497800123a80002b
:100b38000260a00023742000804978008149780071
:100b4800824978000000fc00e00580000080a100d8
:100b58000090a00000a0a000e0058800e00580004b
:100b68000040a0000050a1000060a000e00588003f
:100b7800200680000040a1000006b300200688007f
:100b8800500580000000a0000010a1000020a00077
:100b9800500588004005800000c0a00000d0a100da
:100ba80000e0a000400588002005800000c0a000eb
:100bb80000d0a00000e0a1002005880010068000f9
:100bc8000080a1000090a00000a0a10010068800ed
:100bd8006005800000c0a10000d0a00000e0a100d6
:100be80060058800500580000040a0000050a1006a
:100bf8000060a100500588000000060091ff070072
:100c08002f0007000140fe004047a9000060fe00d9
:100c1800fbff3700881f780018c0b300f0ad200034
:100c280008487800d66aef00f02aef000080eb0051
:100c380090578800a05788000c2aef00e16aef005f
:100c4800e26aef00e36aef00e46aef00d96aef00b6
:100c5800da6aef00db6aef00dc6aef00dd6aef00ba
:100c6800de6aef00e56aef00e66aef00e76aef0088
:100c7800e86aef00d76aef00d86aef00ee6aef0083
:100c8800e96aef00ea6aef00eb6aef00ec6aef004e
:100c980040382000c057880020c0b300e0eab70001
:100ca800defe07007900070029fe0700b2000700f2
:100cb800cdc2a800084078004f0478000000060064
:100cc80005010700a0c0b300810007000004e00090
:100cd800060032000c0ae2000b0032002f01070068
:100ce80080007800a0c0b300730007006050800047
:100cf800e10f50000d00320003003900e20f5000f0
:100d080020003a000c003700c2ff07000004e00092
:100d180003003200200020006050880019003700ce
:100d280010002000605088001600370030002000b6
:100d3800040107001300370010002000010107001c
:100d4800be000700d74ae20001003200d76aef0070
:100d5800e0a020000c000700d6eab7000004e0007d
:100d68000800320011c0b30000c8b300ab00070090
:100d780021c0b30000c4b300a8000700800c200005
:100d8800c057880000000600889fbe000004780055
:100d98001cfe0700804078000040eb000104e000e2
:100da80027003200f95c80001ffe070000f47c0079
:100db8008904e800f95c880040062000808f540010
:100dc80001003a009e2bef00005d80000000e0006b
:100dd80003003200e10f500017003a000b00370003
:100de80001ae2000914078008100fb000040eb003c
:100df800f25c8000810f510011003a0010002000c1
:100e0800005d88000040eb000d003700a02bef00cc
:100e1800f05c80000004440078f997000040eb0083
:100e280071c5b300814f510005003a009e2bef00b9
:100e380010c0b30002003700a02bef000040eb0009
:100e48004f04be00000006000040eb000000060052
:100e5800000006000040eb00000006000040eb0028
:100e68000000060010c0b3000000060010c0b30068
:100e78000000060010c0b3000000060010c0b30058
:100e88000000060010002000000006000421ef000a
:100e98000021ef00f0f321001008880021088000ed
:100ea8000000280001007000200888008460a90064
:100eb8009460a800000006000080fb0000004000cd
:100ec80062b82000000041000188400000000600d0
:100ed8000080fb000000400061b82000610078003d
:100ee80000f0a7000000ea000000e9004f00de0063
:100ef80000000600881f7800800078000040eb00a2
:100f0800edff07000044eb00010037000140fe0040
:100f180008407800eeff07000004e000fbff320005
:100f28004f04780000000600809fbe00829fbe002c
:100f38008460a9000000eb008000400062b8200037
:100f4800e28078000100e0000500320080014000e6
:100f58008200780061817900838140008209e9007c
:100f68000000e800ec0f5000f3ff3a004f01be000c
:100f78004f00be000040060075e2a8007582a80078
:100f88007522a800a01380000000a1000010a00096
:100f9800a01388004be2a8004b82a8004ae2a800f0
:100fa800501280000030a0000040a1000050a000b6
:100fb80050128800501280000000a0000010a1000c
:100fc8000020a0005012880079e2a8007982a800c9
:100fd8007922a800c01380000000a1000010a00022
:100fe800c01388004de2a8004d82a8004ce2a8007a
:100ff800601280000030a0000040a1000050a00056
:1010080060128800601280000000a0000010a1009b
:101018000020a0006012880000000600e2cf500007
:1010280003003a000080fb00d0138800020037005c
:101038000080fb00b013880000000600e54ae200cb
:101048000700320050c0b300a1ff07000004e00011
:1010580003003200e56aef0010c0b300d7eab7001a
:10106800e64ae2000700320060c0b30098ff0700bc
:101078000004e00003003200e66aef0010c0b3008d
:10108800d7eab700e74ae2000700320070c0b300b1
:101098008fff07000004e00003003200e76aef005a
:1010a80010c0b300d7eab700e84ae20007003200f0
:1010b80080c0b30086ff07000004e0000300320090
:1010c800e86aef0010c0b300d7eab70000000600d6
:1010d8008660a90000400600105d80000000e00066
:1010e80003003200e10f500015003a0003003700fa
:1010f800cdc2a800cc02a9001100370010c0b3006f
:1011080073ff07000004e0000d0032006016800045
:101118004e00de000080ea00610060004e00dd0045
:10112800f1ff2b0062168000828060008100700051
:1011380061168800c157800010c0b3005eff070029
:1011480000000600105d8800000006000000060090
:020000040000fa
:101158000c0a0000ee00000000000000a20b0000d6
:101168000200000000000000fa0a00008c000000e5
:1011780000000000860b00001800000000000000be
:10118800000800000c020000000000009e0b000098
:0c1198000400000000000000dc088000e3
:020000040000fa
:1011a400803e200000000600000006008640a900e2
:0411b40000400600f1
:020000040000fa
:0411b8000000000033
:020000040000fa
:0200000401f009
:04000000ffff0000fe
:020000040000fa
:0200000401f009
:04000800ffff0000f6
:020000040000fa
:0200000401f009
:04000c0059ff000098
:020000040000fa
:0200000401f009
:040010000bff0000e2
:020000040000fa
:0200000401f009
:04001400ffff0000ea
:020000040000fa
:0200000401f009
:04001800ecff0000f9
:020000040000fa
:0200000401f009
:04001c00ffff0000e2
:00000001FF
