:020000040000fa
:080000000002040000000000f2
:020000040000fa
:04000800a80200004a
:020000040000fa
:04000c00a802000046
:020000040000fa
:04001000a802000042
:020000040000fa
:04001400a80200003e
:020000040000fa
:04001800a80200003a
:020000040000fa
:04001c00a802000036
:020000040000fa
:04002000a802000032
:020000040000fa
:04002400a80200002e
:020000040000fa
:04002800a80200002a
:020000040000fa
:04002c00a802000026
:020000040000fa
:04003000a802000022
:020000040000fa
:04003400ce070000f3
:020000040000fa
:04003800a80200001a
:020000040000fa
:04003c00a802000016
:020000040000fa
:04004000a802000012
:020000040000fa
:04004400a80200000e
:020000040000fa
:04004800a80200000a
:020000040000fa
:04004c00a802000006
:020000040000fa
:04005000a802000002
:020000040000fa
:04005400b2040000f2
:020000040000fa
:04005800d4040000cc
:020000040000fa
:04005c00e0050000bb
:020000040000fa
:04006000a8020000f2
:020000040000fa
:04006400a8020000ee
:020000040000fa
:04006800a8020000ea
:020000040000fa
:04006c00a8020000e6
:020000040000fa
:04007000340900004f
:020000040000fa
:04007400a2080000de
:020000040000fa
:04007800a8020000da
:020000040000fa
:04007c00a8020000d6
:020000040000fa
:04008000a8020000d2
:020000040000fa
:04008400a8020000ce
:020000040000fa
:04008800a8020000ca
:020000040000fa
:04008c00a8020000c6
:020000040000fa
:04009000a8020000c2
:020000040000fa
:04009400a8020000be
:020000040000fa
:04009800a8020000ba
:020000040000fa
:04009c00a8020000b6
:020000040000fa
:0400a000a8020000b2
:020000040000fa
:0400a400a8020000ae
:020000040000fa
:0400a800a8020000aa
:020000040000fa
:0400ac00a8020000a6
:020000040000fa
:0400b000a8020000a2
:020000040000fa
:0400b400a80200009e
:020000040000fa
:0400b800a80200009a
:020000040000fa
:0400bc00a802000096
:020000040000fa
:0400c000a802000092
:020000040000fa
:0400c400a80200008e
:020000040000fa
:0400c800a80200008a
:020000040000fa
:0400cc00a802000086
:020000040000fa
:0400d000a802000082
:020000040000fa
:0400d400a80200007e
:020000040000fa
:0400d800a80200007a
:020000040000fa
:0400dc00a802000076
:020000040000fa
:0400e000a802000072
:020000040000fa
:0400e400a80200006e
:020000040000fa
:0400e800a80200006a
:020000040000fa
:0400ec008e0300007f
:020000040000fa
:0400f000e603000023
:020000040000fa
:0400f400a80200005e
:020000040000fa
:0400f800a80200005a
:020000040000fa
:0400fc00a802000056
:020000040000fa
:04010000a802000051
:020000040000fa
:04010400a80200004d
:020000040000fa
:04010800a802000049
:020000040000fa
:04010c00a802000045
:020000040000fa
:04011000a802000041
:020000040000fa
:04011400a80200003d
:020000040000fa
:04011800a802000039
:020000040000fa
:04011c00a802000035
:020000040000fa
:04012000a802000031
:020000040000fa
:04012400a80200002d
:020000040000fa
:04012800a802000029
:020000040000fa
:04012c00fc040000cf
:020000040000fa
:04013000a802000021
:020000040000fa
:04013400a80200001d
:020000040000fa
:04013800a802000019
:020000040000fa
:04013c00a802000015
:020000040000fa
:04014000a802000011
:020000040000fa
:04014400a80200000d
:020000040000fa
:04014800a802000009
:020000040000fa
:04014c00a802000005
:020000040000fa
:04015000a802000001
:020000040000fa
:04015400a8020000fd
:020000040000fa
:04015800a8020000f9
:020000040000fa
:04015c00a8020000f5
:020000040000fa
:04016000a8020000f1
:020000040000fa
:04016400a8020000ed
:020000040000fa
:04016800a8020000e9
:020000040000fa
:04016c00a8020000e5
:020000040000fa
:04017000a8020000e1
:020000040000fa
:04017400a8020000dd
:020000040000fa
:04017800a8020000d9
:020000040000fa
:04017c00a8020000d5
:020000040000fa
:04018000a8020000d1
:020000040000fa
:04018400a8020000cd
:020000040000fa
:04018800a8020000c9
:020000040000fa
:04018c00a8020000c5
:020000040000fa
:04019000a8020000c1
:020000040000fa
:04019400a8020000bd
:020000040000fa
:04019800a8020000b9
:020000040000fa
:04019c00a8020000b5
:020000040000fa
:0401a000a8020000b1
:020000040000fa
:0401a400a8020000ad
:020000040000fa
:0401a800a8020000a9
:020000040000fa
:0401ac00a8020000a5
:020000040000fa
:04020800a802000048
:020000040000fa
:04020c00a802000044
:020000040000fa
:04021000a802000040
:020000040000fa
:04021400a80200003c
:020000040000fa
:04021800a802000038
:020000040000fa
:04021c00a802000034
:020000040000fa
:04022000a802000030
:020000040000fa
:04022400a80200002c
:020000040000fa
:04022800a802000028
:020000040000fa
:04022c00a802000024
:020000040000fa
:04023000a802000020
:020000040000fa
:04023400a80200001c
:020000040000fa
:04023800a802000018
:020000040000fa
:04023c00a802000014
:020000040000fa
:04024000a802000010
:020000040000fa
:04024400a80200000c
:020000040000fa
:04024800a802000008
:020000040000fa
:04024c00a802000004
:020000040000fa
:04025000a802000000
:020000040000fa
:04025400a8020000fc
:020000040000fa
:04025800a8020000f8
:020000040000fa
:04025c00a8020000f4
:020000040000fa
:04026000a8020000f0
:020000040000fa
:04026400a8020000ec
:020000040000fa
:04026800a8020000e8
:020000040000fa
:04026c00a8020000e4
:020000040000fa
:04027000a8020000e0
:020000040000fa
:04027400a8020000dc
:020000040000fa
:04027800a8020000d8
:020000040000fa
:04027c00a8020000d4
:020000040000fa
:04028000a8020000d0
:020000040000fa
:04028400a8020000cc
:020000040000fa
:04028800a8020000c8
:020000040000fa
:04028c00a8020000c4
:020000040000fa
:04029000a8020000c0
:020000040000fa
:04029400a8020000bc
:020000040000fa
:04029800a8020000b8
:020000040000fa
:04029c00a8020000b4
:020000040000fa
:0402a000a8020000b0
:020000040000fa
:0402a400a8020000ac
:020000040000fa
:0402a800a8020000a8
:020000040000fa
:0402ac00a8020000a4
:020000040000fa
:0402b000a8020000a0
:020000040000fa
:0402b400a80200009c
:020000040000fa
:0402b800a802000098
:020000040000fa
:0402bc00a802000094
:020000040000fa
:0402c000a802000090
:020000040000fa
:0402c400a80200008c
:020000040000fa
:0402c800a802000088
:020000040000fa
:0402cc00a802000084
:020000040000fa
:0402d000a802000080
:020000040000fa
:0402d400a80200007c
:020000040000fa
:0402d800a802000078
:020000040000fa
:0402dc00a802000074
:020000040000fa
:0402e000a802000070
:020000040000fa
:0402e400a80200006c
:020000040000fa
:0402e800a802000068
:020000040000fa
:0402ec00a802000064
:020000040000fa
:0402f000a802000060
:020000040000fa
:0402f400a80200005c
:020000040000fa
:0402f800a802000058
:020000040000fa
:0402fc00a802000054
:020000040000fa
:04030000a80200004f
:020000040000fa
:04030400a80200004b
:020000040000fa
:04030800a802000047
:020000040000fa
:04030c00a802000043
:020000040000fa
:04031000a80200003f
:020000040000fa
:04031400a80200003b
:020000040000fa
:04031800a802000037
:020000040000fa
:04031c00a802000033
:020000040000fa
:04032000a80200002f
:020000040000fa
:04032400a80200002b
:020000040000fa
:04032800a802000027
:020000040000fa
:04032c00a802000023
:020000040000fa
:04033000a80200001f
:020000040000fa
:04033400a80200001b
:020000040000fa
:04033800a802000017
:020000040000fa
:04033c00a802000013
:020000040000fa
:04034000a80200000f
:020000040000fa
:04034400a80200000b
:020000040000fa
:04034800a802000007
:020000040000fa
:04034c00a802000003
:020000040000fa
:04035000a8020000ff
:020000040000fa
:04035400a8020000fb
:020000040000fa
:04035800a8020000f7
:020000040000fa
:04035c00a8020000f3
:020000040000fa
:04036000a8020000ef
:020000040000fa
:04036400a8020000eb
:020000040000fa
:04036800a8020000e7
:020000040000fa
:04036c00a8020000e3
:020000040000fa
:04037000a8020000df
:020000040000fa
:04037400a8020000db
:020000040000fa
:04037800a8020000d7
:020000040000fa
:04037c00a8020000d3
:020000040000fa
:04038000a8020000cf
:020000040000fa
:04038400a8020000cb
:020000040000fa
:04038800a8020000c7
:020000040000fa
:04038c00a8020000c3
:020000040000fa
:04039000a8020000bf
:020000040000fa
:04039400a8020000bb
:020000040000fa
:04039800a8020000b7
:020000040000fa
:04039c00a8020000b3
:020000040000fa
:0403a000a8020000af
:020000040000fa
:0403a400a8020000ab
:020000040000fa
:0403a800a8020000a7
:020000040000fa
:0403ac00a8020000a3
:020000040000fa
:100400006fba20000eff20000e01880000000000df
:10041000000020000000e000020032000001200087
:10042000200288000c0007008090200001002000be
:1004300011000700000020000000e0000200320070
:100440000000020000000000ec06020000000000b6
:100450000040da000000fe004440a9000000200037
:100460000000e0000300320000002000a00188002e
:100470004440a80000000600910188008000780038
:100480000000eb0015003700e280400032a0b4000d
:100490009101ba00e280400032a0b4009102ba009b
:1004a000e280400032a0b4000002eb00472bde00e7
:1004b000f507b200602ce10004003a000059eb009f
:1004c0008301e900fdff3e00040037006128e100e0
:1004d000010032000082eb000b00070011c3ba00dc
:1004e0001101ba000604e00003003a000200e00037
:1004f000e5ff3a0000000600f607b200960188000a
:1005000082007800f5ff37003159ba008301e90015
:100510000c0032002159ba008301e90008003200c2
:100520000400e00003003a00e280400032a0b40082
:10053000f5ff370011d9ba008301e900faff3a004c
:100540008100e800e180400032a0b4000000060015
:080550000040da000000fe008b
:020000040000fa
:10055800c8c2a900c8a2a800c0e2a800c982a80011
:10056800e0af2000005a8800f059880040b420000d
:10057800305c8800205c8800882bef00422bef005d
:100588008a20a9008a40a9009a20a9009a40a800b8
:1005980000000600ff3ffc00e0af2000005a880082
:1005a800f059880040b42000305c8800205c880046
:1005b800882bef00422bef000000fc000000060033
:1005c800ff3ffc00880be2000e0032008a20a900e1
:1005d800305c8000b080fb0081108800305c8800af
:1005e80031b82000810f50000200360040b42000ce
:1005f800305c8800882bed009a20a8000000fc00e1
:10060800010037000000fc0000000600ff3ffc006e
:10061800420be20003003a000000fc000040eb003f
:10062800020037000000fc0010c0b3000000060004
:10063800ff3ffc00420be20003003a000000fc0010
:100648000040eb000a003700422bed000000fc00e0
:10065800015a800031407800015a8800d2b3200046
:10066800828f500002003600e1af2000015a880056
:1006780000000600ff3ffc00880be20003003a0080
:100688000000fc000040eb00020037000000fc0006
:1006980010c0b30000000600215c8000805878007c
:1006a800215c880030b82000808f5000020036009e
:1006b80040b42000205c8800ff3ffc00f0032000cd
:1006c800880be30001003e00882bec000000fc00d2
:1006d80000000600ff3ffc00405c80000000fc00ba
:1006e800010420000080500000000600ff3ffc00cd
:1006f800420be20003003a000000fc000040eb005f
:10070800030037000000fc00005a80001040780009
:1007180000000600809fbe008a20a900880be20026
:100728001800320081108000f059800001587800cc
:10073800f0598800d1b32000810f50000200360024
:10074800e0af2000f0598800f0032000420be300de
:1007580001003e00422bec00305c8000b080fb00c2
:1007680081108800305c880031b82000810f50006b
:100778000200360040b42000305c8800882bed0071
:100788000e00370081108000f05980000158780071
:10079800f0598800d1b32000810f500002003600c4
:1007a800e0af2000f0598800f0032000420be3007e
:1007b80001003e00422bec009a20a9004f00be0029
:1007c80000400600809fbe008a40a90012e2ab00ec
:1007d80002003a0012c2ab000f0032008110800004
:1007e800f059800001587800f0598800d1b32000f2
:1007f800810f500002003600e0af2000f059880059
:10080800f0032000420be30001003e00422bec0005
:1008180012e2a90012c2a9004f00be000040060063
:100828000080200010488800004888006090200060
:1008380040508800305088000429ef000409f8006f
:100848000a0af900200220004011880080002800d0
:100858000011880000402000101188008560a90060
:100868008c20a9009560a8009c20a8000000060024
:100878009580a80000000600ff3ffc000409e20084
:1008880003003a000000fc000040eb0002003700c3
:100898000000fc0010c0b30000000600ff3ffc0091
:1008a8000409e20003003a000000fc000040eb00ed
:1008b8000a0037000429ed000000fc001148800000
:1008c8003140780011488800f28f2000828f500054
:1008d8000200360001802000114888000000060050
:1008e80031508000805878003150880050a0200096
:1008f800808f500002003600609020003050880041
:10090800ff3ffc00f00f20000a0ae30001003e0050
:100918000a2aec000000fc0000000600ff3ffc0073
:10092800505080000000fc000110200000805000a2
:1009380000000600ff3ffc000409e20003003a0043
:100948000000fc000040eb00030037000000fc0042
:10095800104880001040780000000600809fbe000c
:100968008560a90031118000004880000158780096
:1009780000488800f18f2000810f500002003600e7
:100988000080200000488800f00f20000409e300e0
:1009980001003e000429ec004f00be0000400600a4
:1009a800809fbe000a0ae2000e0032002322ab003c
:1009b8000d003a008580a90040508000b080fb00ff
:1009c800211188004050880051a02000810f50005c
:1009d8000200360060902000405088000a2aed008e
:1009e800010037009580a9004f00be0000400600b6
:1009f800809fbe008c20a9002222ab000e0032008e
:100a080031118000004880000158780000488800b3
:100a1800f18f2000810f5000020036000080200076
:100a280000488800f00f20000409e30001003e00a0
:100a38000429ec002222a9002242a9002262a9006e
:100a48004f00be000040060060af20000008eb0029
:100a5800301078008040eb006140980090009000d2
:100a68006100b300f2ff2300100861000100a1003b
:100a78001100980010c0b300d8eab70000000600c3
:100a8800889fbe00f98aab0039003a0061af2000a8
:100a98001100900000c0a00000b0a10090009800d4
:100aa800a26bef000bff0700800078000040eb000e
:100ab800e88f50003900360068af20001800900019
:100ac8000010a000b80090004e09dd00f3ff2300dd
:100ad80098816100028c7100c208de00e18060002c
:100ae8000000a1000080700010049800a9fe070013
:100af80028409000e8fe070018409000e6fe070036
:100b080018407800e4fe0700adfe07000040eb0047
:100b180022003700a2cbbf00e14f50000300320093
:100b2800e24f500010003a0005003700c0fe0700f1
:100b38006f0060004800dd00d05788000b003700c8
:100b480068af2000a8049000b9fe07000080fb00f1
:100b580089044000290498001800900000b0a00003
:100b68001004980001003700b1fe0700a26bec00ea
:100b7800a6fe07000004e000e6ff3a00f96aab00b1
:100b88000600320061af20001100900000c0a100f3
:100b98009000980010c0b300e9eab7004f04be0007
:100ba80000000600ee0af800f00af900fa0af80058
:100bb800ee0af9000000060085a0a9000040060022
:100bc80010c3b30072a120001241780000416900ef
:100bd8000281fb000201e9004f11de008040eb00ba
:100be800194ae30001003a0021c0b30082c0400066
:100bf8000040eb0012c3b300b3a12000934178007a
:100c080082cf510001003a0040c0b30000c040004c
:100c1800fceab70000000600f08f2f004427b6005a
:100c2800103a800000c0a00000d0a10000e0a100a0
:100c3800103a8800103a80000080a0000090a100bf
:100c480000a0a100103a88004827ef004187a800bb
:100c580040a7a900e024ef00e224ef006e20ef0097
:100c68007020ef005620ef005820ef006220ef00c0
:100c78006420ef00ce22ef00cc02a900cc02a9002c
:100c8800cc02a900c9a2a900c882a900c862a9000b
:100c9800cdc2a900c9c2a900c902a800c842a800bb
:100ca800cd22a900c922a900c8e2a900c0ff2f00cf
:100cb8001202b6000020a0000030a10090108800a9
:100cc8001282a90018c2a90018e2a90012a2a8005d
:100cd800fd42a900fd62a900ff3ffc00f20b2000c5
:100ce800103a8000000161006004200071052000b6
:100cf800237420008049780081497800824978006f
:100d0800123a80000260a000237420008049780015
:100d180081497800824978000000fc00e0058000e5
:100d28000080a1000090a00000a0a000e0058800bd
:100d3800e00580000040a0000050a1000060a00075
:100d4800e0058800200680000040a1000006b300ee
:100d580020068800500580000000a0000010a100b7
:100d68000020a000500588004005800000c0a000b9
:100d780000d0a10000e0a000400588002005800008
:100d880000c0a00000d0a00000e0a100200588005d
:100d9800100680000080a1000090a00000a0a10023
:100da800100688006005800000c0a10000d0a000e7
:100db80000e0a10060058800500580000040a00008
:100dc8000050a1000060a100500588000000060046
:100dd80091ff07002b0007000140fe004047a900d3
:100de8000060fe00fbff3700881f780018c0b300c2
:100df800f0ad200008487800d66aef00ee2aef0030
:100e08000080eb0080578800905788000c2aef007c
:100e1800e06aef00e16aef00e26aef00e36aef00e0
:100e2800d96aef00da6aef00db6aef00dc6aef00ec
:100e3800dd6aef00de6aef00e46aef00e56aef00c2
:100e4800e66aef00e76aef00d76aef00d86aef00ba
:100e5800ed6aef00e86aef00e96aef00ea6aef007e
:100e6800eb6aef006efe070023000700b8fd0700dd
:100e78005c000700cdc2a800084078004f04780045
:100e880000000600af000700a0c0b3002b00070059
:100e98000004e000060032000c0ae2000a003200fa
:100ea800ec00070080007800a0c0b3001d00070018
:100eb800605080000000e00003003200e10f5000a5
:100ec8000c003a0009003700c7ff07000004e000e3
:100ed8000300320020002000605088000500370021
:100ee8001000200060508800020037003000200009
:100ef800af000700000006000421ef000021ef000a
:100f0800f0f3210010088800210880000000280064
:100f180001007000200888008460a9009460a8007f
:100f2800000006000080fb0000004000a2b820007e
:100f38000000410001884000000006000080fb001e
:100f480000004000a1b820006100780000f0a70070
:100f58000000ea000000e9004f00de000000060083
:100f6800881f7800800078000040eb00edff070044
:100f78000044eb00010037000140fe000840780003
:100f8800eeff07000004e000fbff32004f0478008a
:100f980000000600809fbe00829fbe008460a900fa
:100fa8000000eb0080004000a2b82000e28078003a
:100fb8000100e00005003200800140008200780056
:100fc80061817900838140008209e9000000e8001e
:100fd800ec0f5000f3ff3a004f01be004f00be0077
:100fe8000040060075e2a8007582a8007522a800d6
:100ff800a01380000000a1000010a000a01388002a
:101008004be2a8004b82a8004ae2a80050128000d8
:101018000030a0000040a1000050a000501288003d
:10102800501280000000a0000010a1000020a000c5
:101038005012880079e2a8007982a8007922a800d5
:10104800c01380000000a1000010a000c013880099
:101058004de2a8004d82a8004ce2a8006012800072
:101068000030a0000040a1000050a00060128800dd
:10107800601280000000a0000010a1000020a00065
:101088006012880000000600e1cf500003003a001b
:101098000080fb00d0138800020037000080fb00ae
:1010a800b013880000000600e44ae200070032009e
:1010b80050c0b300a1ff07000004e00003003200a5
:1010c800e46aef0010c0b300d7eab700e54ae200cf
:1010d8000700320060c0b30098ff07000004e0007a
:1010e80003003200e56aef0010c0b300d7eab7008a
:1010f800e64ae2000700320070c0b3008fff070025
:101108000004e00003003200e66aef0010c0b300fc
:10111800d7eab700e74ae2000700320080c0b30010
:1011280086ff07000004e00003003200e76aef00d2
:1011380010c0b300d7eab700000006008660a90017
:1011480000400600205d80000000e000030032003f
:10115800e10f500015003a0003003700cdc2a80087
:10116800cc02a9001100370010c0b30073ff0700bc
:101178000004e0000d003200601680004e00de0022
:101188000080ea00610060004e00dd00f1ff2b00e6
:1011980062168000828060008100700061168800fd
:1011a8004138200010c0b3005eff070000000600b1
:1011b800205d880000000600000006000040eb00eb
:1011c800000006000040eb000000060000000600da
:1011d8000040eb00000006000040eb0000000600a5
:1011e80010c0b3000000060010c0b30000000600e5
:1011f80010c0b3000000060010c0b30000000600d5
:081208001000200000000600a8
:020000040000fa
:10121000a20b000002000000000000000c0a000009
:10122000f200000000000000a40b0000020000001b
:1012300000000000fe0a00008c000000000000001a
:101240008a0b0000180000000000000000080000e9
:0c1250000c0200000000000038098000c3
:020000040000fa
:10125c00803e200000000600000006008640a90029
:04126c000040060038
:020000040000fa
:04127000000000007a
:020000040000fa
:0200000401f009
:04000000ffff0000fe
:020000040000fa
:0200000401f009
:04000800ffff0000f6
:020000040000fa
:0200000401f009
:04000c0059ff000098
:020000040000fa
:0200000401f009
:040010000bff0000e2
:020000040000fa
:0200000401f009
:04001400ffff0000ea
:020000040000fa
:0200000401f009
:04001800ecff0000f9
:020000040000fa
:0200000401f009
:04001c00ffff0000e2
:00000001FF
